:100000004AC06EC06DC06CC06BC06AC069C068C0B9
:1000100067C092C365C0F4C525C662C061C060C038
:100020005FC05EC05DC01112131415160A0B0C0DD3
:100030000E0F000102030405000000000000000094
:10004000000405070000000000000000000000019F
:10005000020408102040800102040810200102045C
:100060000810204080400404040404040404020234
:10007000020202020303030303030202030000005F
:100080000038003500320000000000370034003135
:100090000000CF00600611241FBECFE5D4E0DEBF14
:1000A000CDBF10E0A0E6B0E0EAEEFEE002C00590B1
:1000B0000D92A839B107D9F721E0A8E9B0E001C055
:1000C0001D92A835B207E1F710E0CBE4D0E003C001
:1000D0002197FE01F9D6C934D107D1F7C8D603C795
:1000E0008FCF26E040E855E260E070E08BEB90E0D7
:1000F0002CD561E085E000D460E085E039D489E961
:1001000090E0AFD261E089E990E058D24FE060E042
:1001100089E990E009D389E990E039D260E289E980
:1001200090E050D16BE689E990E046D140E650E09E
:1001300061E089E990E08AD163E089E990E044D206
:1001400062E070E089E990E055D289E990E040D121
:1001500089E990E0E3C14AE050E0609198008BEBC0
:1001600090E074D68091980061E0813009F060E001
:1001700085E0FEC389E990E05CD1882331F041E05D
:1001800068E970E089E990E057C10895F3DFE3DFA3
:100190004AE050E0609198008BEB90E057C64AE04F
:1001A00050E069E070E089E990E0F1C0CF93CFB70B
:1001B000F8948091B10081111FC0E0E7F0E08491D4
:1001C000E9E5F0E09491E82FF0E0EE0FFF1FE9572A
:1001D000FF4FA591B491EC91E92319F461E08AE015
:1001E000C7D361E08AE088D36C9A6E9A61E08DE0B3
:1001F00083D361E08BE080D38091B1008F5F8093E7
:10020000B100CFBFCF9108958FB90000779BFECF8B
:100210008FB10895CF93DF93EC016D988DB1837FFB
:100220008DB98DB18C7F8DB9709A8A81A1D38C895B
:100230009D89DF91CF9126C3FC012081318182818C
:1002400093812817390711F0822F92C3089560E037
:10025000E1CF61E0DFCF1F93CF93DF93EC01162F47
:10026000F6DF812F8F71D0DF8FEFCEDF182FCE0119
:10027000F0DF812FDF91CF911F910895CF92DF9210
:10028000EF92FF920F931F93CF93DF937C01C62FC2
:100290006A01122FDCDF8C2F8F718062B5DF082F8F
:1002A000E601115018F08991AFDFFBCFC701D1DF14
:1002B000802FDF91CF911F910F91FF90EF90DF90F2
:1002C000CF9008950F931F93CF93DF938C01C62F88
:1002D000D42FBDDF8C2F8F71806296DFC82F8D2FBA
:1002E00093DFC801B6DF8C2FDF91CF911F910F9163
:1002F0000895BF92CF92DF92EF92FF920F931F93D8
:10030000CF93DF938C01B62EC72EFC01C781DC2F63
:100310004C1708F4D42FF8018085CD1B8111C0E063
:10032000C80195DF81E670DFD82EEB2CFC2CD15074
:1003300030F08FEF69DFF70181937F01F8CFC15073
:1003400018F08FEF61DFFBCFC80183DF8D2DDF91C8
:10035000CF911F910F91FF90EF90DF90CF90BF90C2
:1003600008951F93CF93DF93EC01162F70DF812F39
:100370004BDF182FCE016DDF812FDF91CF911F91C1
:10038000089562EEEECF61EEECCF6FEFEACFFC01A5
:100390007183608353834283168280E28783108651
:1003A00085E0868785E090E0A0E0B0E0848B958BC7
:1003B000A68BB78B11860895462F6D3708F04DE751
:1003C00065E080CF613208F060E2FC016783089548
:1003D000CF93DF93EC0160E03EDF81FD0CC0482F3E
:1003E000426060E0CE016EDF65E070E080E090E0AA
:1003F000DF91CF9111C2DF91CF9108950F931F9399
:10040000CF93DF938C01EB0167E125DF80FD0BC00B
:10041000209739F0C801B9DF90E0959587958770EE
:10042000888381E001C080E0DF91CF911F910F911F
:10043000089570E060E0E2CFCF93DF93EC0159DFE5
:1004400040E767E0CE01DF91CF913CCFEF92FF9282
:100450000F931F93CF93DF938C01C62F7A01611105
:1004600030C0FC01468550E0B701099633D5EC2F2A
:10047000F0E0E45DFF4F6491F8012685A701C80113
:10048000FDDED0E0FE01EA5DFF4F6491F801478197
:10049000C80118DF62E0C801DEDEFE01EE5CFF4F3E
:1004A000E49141E050E001C0440FEA95EAF7482B9F
:1004B00062E0C801DF91CF911F910F91FF90EF9003
:1004C00001CF673048F4E62FF0E0E45DFF4F613084
:1004D00071F2649121E0D2CFDF91CF911F910F9102
:1004E000FF90EF9008951F93CF93DF93EC01162FA9
:1004F00062E0B1DEE12FF0E0EE5CFF4FE49121E03D
:1005000030E001C0220FEA95EAF72095422F4823F8
:1005100062E0CE01DF91CF911F91D4CECF93DF93D4
:10052000EC0156DF60E0CE0196DE482F416060E0CE
:10053000CE01C8DE40E767E0CE01C4DE61E0CE0157
:100540007BDE8985882381F02E85AE01475F5F4F72
:100550006AE0CE0193DE6DE1CE017DDE81FF08C051
:10056000CE01DF91CF910FCF60E0CE01BCDFF3CFA2
:10057000DF91CF910895CF93DF93EC0168DE80E5A2
:1005800043DE83E741DECE01DF91CF9162CECF9390
:10059000DF93EC016DE15FDE482F46606DE1CE0137
:1005A00091DE6CE1CE0157DE482F43606CE1CE0155
:1005B00089DE81E08887DF91CF9108954FE3611153
:1005C00001C040E061E07ECE0F931F93CF938C017A
:1005D000C62F66E040DE887FC43050F4CC0FCF5F7A
:1005E0004C2F482B66E0C801CF911F910F916ACE26
:1005F000C7E0F6CFEF92FF920F931F93CF938C013A
:100600007B0166E028DEC82FC77D82E0E816F10492
:10061000D9F4C0628BE990E0A0E0B0E0F801808BF3
:10062000918BA28BB38B4C2F66E0C8014BDE66E04A
:10063000C80111DE91E08C1390E0892FCF911F91BA
:100640000F91FF90EF90089585E590E0A0E0B0E075
:10065000EA94EF2819F7C86081E490E0A0E0B0E0E8
:10066000DDCF1F93CF93DF93EC01888199812A819D
:100670003B818217930711F061E03ED18A819B8113
:10068000288139812817390711F061E035D18EDDD5
:1006900060E0CE01D1DD61E0CE01BCDD65E070E05F
:1006A00080E090E0B9D04CE060E0CE010BDE4FE599
:1006B00064E0CE0107DE62E070E0CE019BDF8823BC
:1006C00011F081E08E8366E0CE01C5DD182F70E069
:1006D00060E0CE018FDFCE014EDF40E06DE1CE0164
:1006E000F1DD40E06CE1CE01EDDD188640E767E02A
:1006F000CE01E8DD6CE4CE015FDECE0142DECE014C
:1007000042DECE0165DE60E0CE01A5DD482F4E7FE2
:1007100060E0CE01D7DD115081E01E3F08F080E09F
:10072000DF91CF911F91089520E1629FB0011124C4
:100730004F70462B64E0C6CD1F920F920FB60F92FA
:1007400011242F933F938F939F93AF93BF938091E7
:10075000B3009091B400A091B500B091B600309173
:10076000B20026E0230F2D3758F50296A11DB11DCA
:100770002093B2008093B3009093B400A093B5008F
:10078000B093B6008091B7009091B800A091B900E5
:10079000B091BA000196A11DB11D8093B70090934E
:1007A000B800A093B900B093BA00BF91AF919F91E8
:1007B0008F913F912F910F900FBE0F901F90189522
:1007C00029E8230F0396A11DB11DD2CF3FB7F8949E
:1007D0008091B7009091B800A091B900B091BA0093
:1007E00022B708B600FE05C02F3F19F00196A11DE3
:1007F000B11D3FBFBA2FA92F982F8827BC01CD016B
:10080000620F711D811D911D43E0660F771F881FC8
:10081000991F4A95D1F708958F929F92AF92BF92F8
:10082000CF92DF92EF92FF926B017C01CFDF4B0101
:100830005C01C114D104E104F104D9F022D3C6DF74
:10084000681979098A099B09683E734081059105F9
:1008500080F321E0C21AD108E108F10888EE880E81
:1008600083E0981EA11CB11CC114D104E104F10461
:1008700031F7FF90EF90DF90CF90BF90AF909F90B7
:100880008F9008958330910528F0880F991F049761
:100890000197F1F70895789483B7826083BF83B797
:1008A000816083BF89B7816089BF1EBC8EB58260BD
:1008B0008EBD8EB581608EBD8FB581608FBD85B5D3
:1008C000846085BD85B5806485BD329A319A309843
:1008D000379A1AB80895853041F0873049F084304E
:1008E00051F48FB58F778FBD08958FB58F7DFBCF76
:1008F00085B58F7D85BD0895CF93DF9390E0FC0192
:10090000E15BFF4F24918A599F4FFC01849188231A
:10091000C9F090E0880F991FFC01E957FF4FA5919E
:10092000B491FC01E358FF4FC591D49161110DC002
:100930009FB7F8948C91209582238C9388812823EB
:1009400028839FBFDF91CF910895623051F49FB704
:10095000F8943C91822F809583238C93E8812E2BF1
:10096000EFCF8FB7F894EC912E2B2C938FBFEACF5B
:100970001F93CF93DF93282F30E0F901E85CFF4FFE
:100980008491F901E15BFF4FD491F901EA59FF4FDE
:10099000C491CC23A1F0162F81119DDFEC2FF0E044
:1009A000EE0FFF1FE358FF4FA591B4918FB7F89456
:1009B000EC91111108C0D095DE23DC938FBFDF913D
:1009C000CF911F910895DE2BF8CFFC01918D228DE0
:1009D000892F90E0805C9F4F821B91098F7399272C
:1009E0000895FC01918D828D981731F0828DE80F6A
:1009F000F11D858D90E008958FEF9FEF0895FC0124
:100A0000918D828D981761F0A28DAE0FBF2FB11D11
:100A10005D968C91928D9F5F9F73928F90E0089569
:100A20008FEF9FEF089587E596E0892B39F080E0FE
:100A300090E0892B19F03BD18111E2CA0895FC01A5
:100A4000A48DA80FB92FB11DA35ABF4F2C91848D2F
:100A500090E001968F739927848FA689B7892C938C
:100A6000A089B1898C9180648C93938D848D981327
:100A700006C00288F389E02D80818F7D80830895F0
:100A8000CF93DF93EC01888D8823B1F0AA89BB89CD
:100A9000E889F9898C9185FD03C0808186FD0CC0B1
:100AA0000FB607FCF7CF8C9185FFF2CF808185FFD1
:100AB000EDCFCE01C4DFEACFDF91CF910895EF9261
:100AC000FF920F931F93CF93DF93EC0181E0888F08
:100AD0009B8D8C8D981316C0E889F989808185FFDC
:100AE00011C0EE89FF896083E889F989808180647B
:100AF000808381E090E0DF91CF911F910F91FF9073
:100B0000EF900895F62E0B8D10E00F5F1F4F0F73BF
:100B10001127E02E8C8D8E110BC00FB607FCFACF7B
:100B2000E889F989808185FFF5CFCE0188DFF2CF92
:100B3000EB8DEC0FFD2FF11DE35AFF4FF0820B8F71
:100B4000EA89FB8980818062D3CFCF92DF92EF92D6
:100B5000FF921F93CF93DF93EC016A017B01122F69
:100B600060E874E88EE190E0A70196018BD12150F6
:100B70003109410951095695479537952795E889D7
:100B8000F98982E08083211580E1380790F0E889B7
:100B9000F989108260E472E48FE090E0A701960189
:100BA00071D1215031094109510956954795379521
:100BB0002795EC85FD853083EE85FF852083188E93
:100BC0001068EC89FD891083EA89FB898081806146
:100BD0008083EA89FB89808188608083EA89FB8938
:100BE000808180688083EA89FB8980818F7D808312
:100BF000DF91CF911F91FF90EF90DF90CF900895FC
:100C00001F920F920FB60F9211242F938F939F93E1
:100C1000EF93FF93E091CB00F091CC008081E091C5
:100C2000D100F091D20082FD1BC090818091D40050
:100C30008F5F8F732091D500821741F0E091D4002F
:100C4000F0E0E554FF4F958F8093D400FF91EF9132
:100C50009F918F912F910F900FBE0F901F9018951D
:100C60008081F4CF1F920F920FB60F9211242F9311
:100C70003F934F935F936F937F938F939F93AF9324
:100C8000BF93EF93FF938BEB90E0D9DEFF91EF9151
:100C9000BF91AF919F918F917F916F915F914F9194
:100CA0003F912F910F900FBE0F901F9018958BEBD7
:100CB00090E08BDE21E0892B09F420E0822F08955B
:100CC000EBEBF0E01382128288EE93E0A0E0B0E05C
:100CD00084839583A683B78388E890E0918380839B
:100CE00080E490E09587848729E230E03787268783
:100CF0002BE230E0318B208B2AE230E0338B228BE9
:100D0000958B848B8CE290E0978B868B118E128E64
:100D1000138E148E0895AF92BF92CF92DF92EF920E
:100D2000FF920F931F93CF93DF936C017B018B0195
:100D3000040F151FEB015E01AE18BF08C017D107E5
:100D400059F06991D601ED91FC910190F081E02D6F
:100D5000C6010995892B79F7C501DF91CF911F91C4
:100D60000F91FF90EF90DF90CF90BF90AF900895DC
:100D7000FB0101900020E9F73197AF01461B570BAB
:100D8000DC01ED91FC910280F381E02D099464E98E
:100D900070E0EECF8F929F92AF92BF92EF92FF9250
:100DA0000F931F93CF93DF93CDB7DEB7A1970FB605
:100DB000F894DEBF0FBECDBF7C01FA01CB0119A2B2
:100DC000223008F42AE08E010F5D1F4F822E912CF5
:100DD000B12CA12CBF01A501940154D0F901CA0185
:100DE0006A3004F5605DD8016E938D01232B242BAE
:100DF000252B81F790E080E0109719F0BD01C70125
:100E0000B7DFA1960FB6F894DEBF0FBECDBFDF915E
:100E1000CF911F910F91FF90EF90BF90AF909F9057
:100E20008F900895695CDFCF2115310541F4DC0115
:100E3000ED91FC910190F081E02D642F0994AACFEF
:100E40009A01462F50E070E060E0EECF0F931F93C1
:100E5000CF93DF93EC01F4DF8C01CE0198DF800F9C
:100E6000911FDF91CF911F910F910895089513DD88
:100E7000FDDF37D9C3E1D5E089D92097E9F3D3DD88
:100E8000FBCF0895A1E21A2EAA1BBB1BFD010DC0CA
:100E9000AA1FBB1FEE1FFF1FA217B307E407F5072A
:100EA00020F0A21BB30BE40BF50B661F771F881F06
:100EB000991F1A9469F760957095809590959B019C
:100EC000AC01BD01CF010895EE0FFF1F0590F49115
:100ED000E02D0994FB01DC0102C001900D9241500C
:0A0EE0005040D8F70895F894FFCFB2
:100EEA00314E6F646500324E6F646500334E6F6435
:100EFA006500344E6F646500354E6F646500364E8A
:100F0A006F646500000000005F058B06E504FF04BE
:080F1A00F10440050D0A00007E
:101E000001C0AEC011248FE594E09EBF8DBF84B7A2
:101E1000882361F0982F9A70923041F081FF02C0C0
:101E200097EF94BF282E80E0B6D0EAC085E08EBD43
:101E300082E08BB988E18AB986E880BD89E189B9F9
:101E40008EE0A9D0BD9A84E028E13EEF44E050E264
:101E50003DBD2CBD48BF08B602FEFDCF98B3952707
:101E600098BBA8955F9902C0815091F78DD08134BD
:101E700061F48AD0182F93D01238E9F0113811F498
:101E800088E001C083E07CD068C0823411F484E132
:101E900003C0853419F485E08AD05FC0853539F4F4
:101EA00073D0C82F71D0D82FCC0FDD1F55C0863509
:101EB00021F484E07CD080E0E6CF843681F564D0E4
:101EC00063D0182F61D0D82E012F90E6E92EF12C87
:101ED0005BD0F70181937F010150D1F760D0F5E429
:101EE000DF1201C0FFCF40E050E063E0CE0138D008
:101EF0007E0180E6C82ED12CF601419151916F01EF
:101F000061E0C7012DD01250F2E0EF0EF11C11116B
:101F1000F3CF40E050E065E0CE0122D01EC0843710
:101F200071F432D031D0F82E2FD039D08E01F80193
:101F300085918F0125D0FA94F110F9CF0EC0853725
:101F400039F42DD08EE11CD083E91AD087E09BCFE5
:101F5000813511F488E01FD022D080E111D086CFE6
:101F6000FC010A0167BFE895112407B600FCFDCF0C
:101F7000667029F0452B19F481E187BFE895089533
:101F80005D9BFECF8CB908955F9BFECF5C9901C02D
:101F9000A8958CB1089598E191BD81BD0895F4DFB5
:101FA000803219F088E0F7DFFFCF84E1E9CFCF93EB
:0C1FB000C82FEADFC150E9F7CF91F1CF54
:021FFE000008D9
:0400000300001E00DB
:00000001FF
